:10000000F2C0000010C100000EC100000CC10000D1
:100010000AC1000008C1000006C1000004C10000C0
:1000200002C1000000C10000FEC00000FCC00000D2
:10003000FAC00000F8C00000F6C00000F4C00000E4
:10004000F2C00000F0C00000EEC00000ECC00000F4
:10005000EAC00000E8C00000E6C00000E4C0000004
:10006000E2C0000033C10000DEC00000DCC00000C0
:10007000DAC00000D8C00000D6C00000D4C0000024
:10008000D2C00000D0C00000CEC00000CCC0000034
:10009000CAC00000C8C00000C6C00000C4C0000044
:1000A000C2C00000C0C00000BEC00000BCC0000054
:1000B000BAC00000B8C00000B6C00000B4C0000064
:1000C000B2C00000B0C00000AEC00000ACC0000074
:1000D000AAC00000A8C00000A6C00000A4C0000084
:1000E000A2C000006E616E00696E660000407A106A
:1000F000F35A00A0724E18090010A5D4E80000E8D9
:100100007648170000E40B54020000CA9A3B000036
:1001100000E1F505000080969800000040420F00C5
:100120000000A08601000000102700000000E80386
:10013000000000006400000000000A000000000051
:100140000100000000002C76D888DC674F0823DF10
:10015000C1DFAE59E1B1B796E5E3E453C63AE651E3
:10016000997696E8E6C28426EB898C9B62ED407C0A
:100170006FFCEFBC9C9F40F2BAA56FA5F490055AA6
:100180002AF75C936B6CF9676DC11BFCE0E40D47CB
:10019000FEF520E6B500D0ED902E030094357705EE
:1001A0000080841E080000204E0A000000C80C33A6
:1001B0003333330F986E12831141EF8D2114893B35
:1001C000E65516CFFEE6DB18D1844B381BF77C1DB5
:1001D000901DA4BBE424203284725E228100C9F108
:1001E00024ECA1E53D2711241FBECFEFD1E2DEBFF5
:1001F000CDBF00E00CBF12E0A0E0B2E0E2E0F5E12C
:1002000000E00BBF02C007900D92A235B107D9F7ED
:1002100022E0A2E5B2E001C01D92AA3CB207E1F7DC
:10022000A4D00C947F0AECCE982F9F71905C909391
:100230007C00807290E09595879595958795809341
:100240007B0087E880937A000895EAE7F0E08081F8
:100250008064808380917A0086FDFCCF6091790074
:1002600070E0762F662780917800680F711D072E49
:10027000000C880B990B15D320E030E040EA50E4E5
:100280009CD320E030E040E85AE397C30895DDDFD7
:100290002AE037ED43E25CE39AC20895FC0103C013
:1002A0008093C600319680818111FACF0895209104
:1002B000540230915502F901EA5AFD4F80832F5FB5
:1002C0003F4F309355022093540208951F920F928E
:1002D0000FB60F9211240BB60F922F933F934F93AB
:1002E0005F936F937F938F939F93AF93BF93EF939E
:1002F000FF938091C0008823E4F78091C60090E0CE
:100300008A30910529F4109255021092540201C0CE
:10031000CEDFFF91EF91BF91AF919F918F917F9130
:100320006F915F914F913F912F910F900BBE0F9066
:100330000FBE0F901F90189588B1846088B988B15E
:100340008B7F88B9089598B19D7F98B982B9F4CF11
:10035000089598B19E7F98B990E0F5CF089598B12F
:10036000916098B990E0EFCF0895CF93DF93CDB728
:10037000DEB7A0970FB6F894DEBF0FBECDBF80E00A
:1003800053DF1092C50087E68093C40001EC10E0B3
:1003900088EBF801808386E08093C2008FEF81B9FB
:1003A00087E087B98EE0D5DF789480E1E0E0F2E085
:1003B000DE01119601900D928A95E1F7CE0101962A
:1003C0006DDF80EBF801808380E090E040E050E05A
:1003D00009C0FC01EA5AFD4F2081222311F04F5F32
:1003E0005F4F019680319105A4F34031510509F02A
:1003F00081C08091520290915302019759F401EC0F
:1004000010E088EBF801808381E292E047DF80EB27
:10041000F801808381E09DDF00E010E007C0F80173
:10042000EA5AFD4F80819BDF0F5F1F4F003111059E
:10043000B4F38091520290915302019759F401EC68
:1004400010E088EBF80180838FE292E027DF80EBF9
:10045000F801808388B18E7F88B988B18B7F88B995
:10046000FFEF23E234EFF15020403040E1F700C0CD
:10047000000081E06EDF80EC6CDF80915202909191
:100480005302019759F401EC10E088EBF8018083E6
:1004900081E292E003DF80EBF801808300E010E06E
:1004A00007C0F801EA5AFD4F808159DF0F5F1F4FE7
:1004B00000311105B4F380915202909153020197DB
:1004C00059F401EC10E088EBF80180838FE292E0B0
:1004D000E5DE80EBF801808380E090E005C0FC0160
:1004E000EA5AFD4F1082019680319105C4F382E0F3
:1004F00030DF6ACF4130510509F0C6C08091560205
:100500008233E9F401EC10E088EBF80180838FE09E
:10051000E1E1F2E0DE01519601900D928A95E1F75A
:1005200018A2CE014196BADE80EBF80180831092CA
:10053000560281E090E090935302809352028091A2
:1005400056028333D1F401EC10E088EBF80180838C
:1005500080E1E2E4F2E0DE01519601900D928A958D
:10056000E1F7CE0141969ADE80EBF801808310928C
:100570005602109253021092520280915602843316
:1005800001F501EC10E088EBF801808380DE9F9399
:100590008F937F936F938EE392E09F938F9386E682
:1005A00092E09F938F931FD786E692E077DE80EBF1
:1005B000F8018083109256020FB6F894DEBF0FBE8A
:1005C000CDBF80915602853309F0FECE88B18E7F73
:1005D00088B988B18B7F88B981E0BBDE82E0B9DE63
:1005E00056DE9F938F937F936F938EE392E09F935A
:1005F0008F9386E692E09F938F93F5D68091520277
:10060000909153020FB6F894DEBF0FBECDBF019795
:1006100059F401EC10E088EBF801808381E292E06C
:100620003DDE80EBF801808300E010E00BC0F801B4
:10063000EA59FD4F8081F801EA5AFD4F80838FDE31
:100640000F5F1F4F0031110594F38091520290917A
:100650005302019759F401EC10E088EBF801808314
:100660008FE292E01BDE80EBF801808380E090E077
:1006700005C0FC01EA5AFD4F1082019680319105B8
:10068000C4F382E066DEA0CE141615060CF09CCEF4
:1006900080915602813309F097CE809157028033C2
:1006A00009F048C081E055DE82E053DEFFEF23ED24
:1006B00030E3F15020403040E1F700C0000080916D
:1006C000520290915302019759F401EC10E088EB2B
:1006D000F801808381E292E0E1DD80EBF801808324
:1006E00002E010E007C0F801EA5AFD4F808137DED2
:1006F0000F5F1F4F00311105B4F3809152029091AA
:100700005302019759F401EC10E088EBF801808363
:100710008FE292E0C3DD80EBF801808380E090E01F
:1007200005C0FC01EA5AFD4F108201968031910507
:10073000C4F34ACE813309F047CE81E00ADEFFEFF1
:1007400023ED30E3F15020403040E1F700C00000DD
:1007500080ECFFDD8091520290915302019759F491
:1007600001EC10E088EBF801808381E292E096DDF5
:1007700080EBF801808302E010E007C0F801EA5A3C
:10078000FD4F8081ECDD0F5F1F4F00311105B4F389
:100790008091520290915302019759F401EC10E0BC
:1007A00088EBF80180838FE292E078DD80EBF8013E
:1007B000808380E090E005C0FC01EA5AFD4F108282
:1007C000019680319105C4F382E0C3DDFDCD0CD0EC
:1007D000BAC0B2D040F0A9D030F021F45F3F19F098
:1007E0009BC05111E4C09EC0BFD098F39923C9F3B8
:1007F0005523B1F3951B550BBB27AA276217730727
:10080000840738F09F5F5F4F220F331F441FAA1FDA
:10081000A9F333D00E2E3AF0E0E830D0915050409A
:10082000E695001CCAF729D0FE2F27D0660F771F48
:10083000881FBB1F261737074807AB07B0E809F02A
:10084000BB0B802DBF01FF2793585F4F2AF09E3FBF
:10085000510568F061C0ABC05F3FECF3983EDCF33C
:10086000869577956795B795F7959F5FC9F7880F38
:10087000911D9695879597F90895E1E0660F771F8A
:10088000881FBB1F621773078407BA0720F0621B1B
:10089000730B840BBA0BEE1F88F7E0950895E8946C
:1008A00009C097FB3EF490958095709561957F4FB8
:1008B0008F4F9F4F9923A9F0F92F96E9BB27939566
:1008C000F695879577956795B795F111F8CFFAF476
:1008D000BB0F11F460FF1BC06F5F7F4F8F4F9F4FA7
:1008E00016C0882311F096E911C0772321F09EE805
:1008F000872F762F05C0662371F096E8862F70E06B
:1009000060E02AF09A95660F771F881FDAF7880F44
:100910009695879597F9089597F99F6780E870E015
:1009200060E008959FEF80EC089500240A94161665
:10093000170618060906089500240A9412161306CD
:10094000140605060895092E0394000C11F488235B
:1009500052F0BB0F40F4BF2B11F460FF04C06F5F77
:100960007F4F8F4F9F4F089557FD9058440F551F4D
:1009700059F05F3F71F04795880F97FB991F61F021
:100980009F3F79F087950895121613061406551F98
:10099000F2CF4695F1DF08C0161617061806991F04
:1009A000F1CF86957105610508940895E894BB27F9
:1009B00066277727CB0197F908950BD0C4CFB5DF11
:1009C00028F0BADF18F0952309F0A6CFABCF112499
:1009D000EECFCADFA0F3959FD1F3950F50E0551FDE
:1009E000629FF001729FBB27F00DB11D639FAA2784
:1009F000F00DB11DAA1F649F6627B00DA11D661FD3
:100A0000829F2227B00DA11D621F739FB00DA11DF3
:100A1000621F839FA00D611D221F749F3327A00DAD
:100A2000611D231F849F600D211D822F762F6A2F49
:100A300011249F5750408AF0E1F088234AF0EE0FCE
:100A4000FF1FBB1F661F771F881F91505040A9F7DB
:100A50009E3F510570F060CFAACF5F3FECF3983E08
:100A6000DCF3869577956795B795F795E7959F5F42
:100A7000C1F7FE2B880F911D9695879597F90895DC
:100A80002F923F924F925F926F927F928F929F929E
:100A9000AF92BF92CF92DF92EF92FF920F931F938C
:100AA000CF93DF93CDB7DEB760970FB6F894DEBF74
:100AB0000FBECDBF7C011B016A01FC0117821682AB
:100AC000838181FF2AC39E012F5F3F4F3901F701C8
:100AD0009381F10193FD859193FF81911F018823FB
:100AE00009F417C3853239F493FD859193FF819101
:100AF0001F01853231F4B70190E039D45601650108
:100B0000E6CF10E0512C912CFFE1F915D8F08B3293
:100B100079F038F4803279F08332A1F4F92DF06164
:100B20002EC08D3261F0803369F4292D21602DC0F3
:100B3000392D3260932E892D8460982E2AC0E92D9C
:100B4000E86015C097FC2DC020ED280F2A3088F4EE
:100B500096FE06C03AE0139F200D1124122F19C0F3
:100B60008AE0589E200D1124522EE92DE0629E2E1F
:100B700010C08E3231F496FCCCC2F92DF0649F2E59
:100B800008C08C3621F4292D2068922E02C08836A8
:100B900041F4F10193FD859193FF81911F01811132
:100BA000B3CF9BEB980F933020F4992D9061805E2A
:100BB00007C09BE9980F933008F059C1992D9F7E8B
:100BC00096FF16E09F73992E853619F49064992E3E
:100BD00008C0863621F4392F3068932E02C01111D7
:100BE000115097FE07C01C3350F444244394410E27
:100BF00027E00BC0183038F027E017E005C027E0E9
:100C00009CE3492E02C0212F412C560184E0A80EFE
:100C1000B11CF6016081718182819381042DA30151
:100C2000B8D26C01F981FC87F0FF02C0F3FF06C067
:100C300091FC06C092FE06C000E205C00DE203C0B2
:100C40000BE201C000E08C858C7019F0011143C2E9
:100C500080C297FE10C04C0CFC85F4FF04C08A8152
:100C6000813309F44A94141474F528E0241578F5B6
:100C700088E0482E2CC096FC2AC0812F90E08C156D
:100C80009D059CF03CEFC3163FEFD30674F0892D11
:100C90008068982E0AC0E2E0F0E0EC0FFD1FE10F43
:100CA000F11D8081803319F411501111F4CF97FE9A
:100CB0000EC044244394410E812F90E0C816D906FB
:100CC0002CF41C1904C04424439401C010E097FE86
:100CD00006C01C141D0434F4C601019605C085E04D
:100CE00090E002C081E090E001110196112331F003
:100CF000212F30E02F5F3F4F820F931F252D30E0D3
:100D00008217930714F4581A01C0512C892D897049
:100D100041F4552031F0B70180E290E028D35A9495
:100D2000F8CF002321F0B701802F90E020D393FC6F
:100D300008C0552031F0B70180E390E018D35A94F1
:100D4000F8CF97FE4AC04601D7FE02C0812C912CF5
:100D5000C60188199909F301E80FF91FFE87ED878D
:100D6000960124193109388B2F87012F10E0119536
:100D7000019511093FEF8316930621F4B7018EE226
:100D800090E0F5D2C814D9044CF08F859889881565
:100D9000990524F4ED85FE85818101C080E3F1E0B1
:100DA0008F1A91082D853E852F5F3F4F3E872D87F7
:100DB0008016910624F0B70190E0D9D2DBCFC81499
:100DC000D90441F49A81963320F4953319F43C8583
:100DD00034FF81E3B70190E048C08A81813319F084
:100DE0009C859F7E9C87B70190E0C1D2111105C000
:100DF00094FC16C085E690E015C0B7018EE290E045
:100E0000B6D21E5F82E001E0080FF301E80FF11D8A
:100E10008081B70190E0ABD2802F0113F4CFE8CFEF
:100E200085E490E0B701A3D2D7FC06C0C114D10479
:100E300041F4EC85E4FF05C0D194C194D1088DE262
:100E400001C08BE2B70190E092D280E32AE0C216A3
:100E5000D1042CF08F5FFAE0CF1AD108F7CFB70199
:100E600090E085D2B701C601C09681D249C18336D0
:100E700031F0833779F0833509F052C01FC0560135
:100E800032E0A30EB11CF6018081898301E010E0FD
:100E9000630111C05601F2E0AF0EB11CF601C08033
:100EA000D18096FE03C0612F70E002C06FEF7FEF2C
:100EB000C60152D28C01F92DFF7713C0560122E0F2
:100EC000A20EB11CF601C080D18096FE03C0612F36
:100ED00070E002C06FEF7FEFC60133D28C01F92DB5
:100EE000F0689F2EF3FD18C0852D90E008171907B4
:100EF00098F4B70180E290E03AD25A94F5CFF60127
:100F000097FC859197FE81916F01B70190E02FD2F8
:100F100051105A94015011090115110581F7F0C0C3
:100F2000843611F0893659F5560197FE09C024E040
:100F3000A20EB11CF60160817181828193810AC089
:100F4000F2E0AF0EB11CF60160817181072E000C3A
:100F5000880B990BF92DFF769F2E97FF09C090956E
:100F60008095709561957F4F8F4F9F4FF0689F2EB2
:100F70002AE030E0A30165D2C82EC6183EC0092D74
:100F8000853721F40F7E2AE030E01DC0097F8F36BF
:100F900091F018F4883559F0BCC0803719F08837C3
:100FA00011F0B7C0006104FF09C0046007C094FEDF
:100FB00008C0066006C028E030E005C020E130E04F
:100FC00002C020E132E0560107FF09C084E0A80E0C
:100FD000B11CF601608171818281938108C0F2E0C9
:100FE000AF0EB11CF6016081718180E090E0A30139
:100FF00028D2C82EC6180F77902E96FE0BC0092D4A
:101000000E7FC11650F494FE0AC092FC08C0092D50
:101010000E7E05C0DC2C092D03C0DC2C01C0D12EB6
:1010200004FF0DC0FE01EC0DF11D8081803311F431
:10103000097E09C002FF06C0D394D39404C0802F58
:10104000867809F0D39403FD10C000FF06C01C2D64
:10105000D51478F4150D1D190CC0D51450F4B70132
:1010600080E290E084D1D394F8CFD51410F45D18C9
:1010700001C0512C04FF0FC0B70180E390E077D18D
:1010800002FF16C001FD03C088E790E002C088E5BA
:1010900090E0B7010CC0802F867851F001FF02C0AC
:1010A0008BE201C080E207FD8DE2B70190E05FD1E5
:1010B000C11630F4B70180E390E059D11150F8CF58
:1010C000CA94F301EC0DF11D8081B70190E04FD17E
:1010D000C110F6CF15C0F4E0F51550F584E0581AAC
:1010E00093FE1EC0011125C02C8523FF27C004EEEE
:1010F00010E0392D3071932EF8018491811121C0B7
:10110000552009F4FCCCB70180E290E030D15A942C
:10111000F7CFF7018681978123C08FEF9FEF20C023
:10112000B70180E290E023D15A945110F9CFDACF81
:10113000512CB701802F90E01AD1D6CF08EE10E0E5
:10114000D8CF91108052B70190E011D10F5F1F4F9F
:10115000D3CF23E0251510F483E0C1CF512CC4CFA9
:1011600060960FB6F894DEBF0FBECDBFDF91CF9172
:101170001F910F91FF90EF90DF90CF90BF90AF90B5
:101180009F908F907F906F905F904F903F902F90A7
:101190000895283008F027E03327DA01990F311D30
:1011A00087FD916000966105710539F432602E5F0C
:1011B0003D9330E32A95E1F708959F3F30F0803862
:1011C0007105610509F03C5F3C5F3D93913008F08B
:1011D0008068911DDF93CF931F930F93FF92EF923F
:1011E000192F987F9695E92F96959695E90FFF27E9
:1011F000EA5BFE4F99273327EE24FF24A701E7017E
:1012000005900894079428F4360FE71EF81E491F2E
:10121000511D660F771F881F991F0694A1F705902F
:10122000079428F4E70EF81E491F561FC11D770FBB
:10123000881F991F661F0694A1F70590079428F44C
:10124000F80E491F561FC71FD11D880F991F661F13
:10125000771F0694A1F70590079420F4490F561FB5
:10126000C71FD81F990F661F771F881F0694A9F7FD
:1012700084911095177041F0D695C795579547956D
:10128000F794E7941A95C1F7ECEEF0E068941590A6
:10129000159135916591959105907FE27395E118CF
:1012A000F10A430B560BC90BD009C0F7E10CF11E34
:1012B000431F561FC91FD01D7EF4703311F48A9549
:1012C000E6CFE894015030F0080F0AF40027021727
:1012D00008F4202F2395022F7A3328F079E37D93A9
:1012E0002A95E9F710C07D932A9589F6069497957B
:1012F0006795379517951794E118F10A430B560B2C
:10130000C90BD00998F023957E9173957A3308F034
:1013100070E37C932013B8F77E9170617D9330F079
:10132000839571E37D9370E32A95E1F71124EF90A3
:10133000FF900F911F91CF91DF91992787FD909595
:101340000895FC010590615070400110D8F7809518
:1013500090958E0F9F1F0895FC0161507040019081
:101360000110D8F7809590958E0F9F1F08950F93C9
:101370001F93CF93DF93FB01238121FD03C08FEFE8
:101380009FEF2CC022FF16C04681578124813581F2
:101390004217530744F4A081B1819D012F5F3F4F55
:1013A000318320838C93268137812F5F3F4F378392
:1013B000268314C08B01EC01FB010084F185E02D34
:1013C0001995892BE1F6D80116968D919C91179766
:1013D000019617969C938E931697CE01DF91CF912D
:1013E0001F910F9108950F931F93CF93DF93CDB764
:1013F000DEB72E970FB6F894DEBF0FBECDBF0E89B5
:101400001F8986E08C831A8309838FEF9FE79E8371
:101410008D83AE01465E5F4F688D798DCE0101965A
:101420002FDBEF81F885E00FF11F10822E960FB6AB
:10143000F894DEBF0FBECDBFDF91CF911F910F910A
:101440000895FA01AA27283051F1203181F1E8945A
:101450006F936E7F6E5F7F4F8F4F9F4FAF4FB1E0A7
:101460003ED0B4E03CD0670F781F891F9A1FA11DA2
:10147000680F791F8A1F911DA11D6A0F711D811DA3
:10148000911DA11D20D009F468943F912AE0269F68
:1014900011243019305D3193DEF6CF010895462FC7
:1014A0004770405D4193B3E00FD0C9F7F6CF462FA8
:1014B0004F70405D4A3318F0495D31FD4052419311
:1014C00002D0A9F7EACFB4E0A695979587957795CE
:1014D0006795BA95C9F700976105710508959B0155
:1014E000AC010A2E06945795479537952795BA95DE
:1014F000C9F7620F731F841F951FA01D0895F894EC
:02150000FFCF1B
:101502006D6963726F63686970206973206F6E2101
:1015120000206C6F6767206D736773206F6E200009
:1015220000204D736720737461727465642000201B
:101532004D73672066696E6973686564200025666D
:101542002000206C6F6767206D736773206F66667B
:02155200200077
:00000001FF
