:020000020000FC
:040000000C947600E6
:0200900045C069
:1000E40003E0202E00E0302E80E001E20EBF0FEF8F
:1000F4000DBF0FEF0DB900270EB90FEF04B905B905
:100104003CE03093CC0038E13093C900D2E0C0E049
:10011400B2E0A0E031D078945091C80057FFFCCFF2
:100124007091CE007D3089F07993172F75B92FD057
:100134005091C80055FFFCCF7093CE0012E40E948A
:10014400C900339432140CF415C015E60E94C9009A
:1001540035D010E41ED0DB1711F4CA1721F01D911D
:1001640016D02CD0F8CFD2E0C0E0B2E0A0E012E08C
:1001740010D000C00000D0CF27D012E013D01BD085
:100184001FE007D018D011E004D018D0089590E2F1
:1001940001C09927012F107F1295192B03D0102F1E
:1001A4001F70192B16D00000759A00000000759876
:1001B400000000000895FF27EEE108C0F3E0E8EE38
:1001C40005C0F1E1E8EF02C0F3E2E8E23197F1F7AC
:1001D40008950F93002710FD046011FD086012FDBF
:1001E400016013FD026014FD006215FD00680EB984
:1001F4000F9108952FE230EC48E64A95F1F73A95CD
:08020400E1F72A95D1F70895F6
:00000001FF
